{
  "contractName": "LipToken",
  "abi": [
    {
      "inputs": [
        {
          "internalType": "string",
          "name": "_name",
          "type": "string"
        },
        {
          "internalType": "string",
          "name": "_symbol",
          "type": "string"
        }
      ],
      "stateMutability": "nonpayable",
      "type": "constructor"
    },
    {
      "anonymous": false,
      "inputs": [
        {
          "indexed": true,
          "internalType": "address",
          "name": "owner",
          "type": "address"
        },
        {
          "indexed": true,
          "internalType": "address",
          "name": "approved",
          "type": "address"
        },
        {
          "indexed": true,
          "internalType": "uint256",
          "name": "tokenId",
          "type": "uint256"
        }
      ],
      "name": "Approval",
      "type": "event"
    },
    {
      "anonymous": false,
      "inputs": [
        {
          "indexed": true,
          "internalType": "address",
          "name": "owner",
          "type": "address"
        },
        {
          "indexed": true,
          "internalType": "address",
          "name": "operator",
          "type": "address"
        },
        {
          "indexed": false,
          "internalType": "bool",
          "name": "approved",
          "type": "bool"
        }
      ],
      "name": "ApprovalForAll",
      "type": "event"
    },
    {
      "anonymous": false,
      "inputs": [
        {
          "indexed": true,
          "internalType": "address",
          "name": "owner",
          "type": "address"
        },
        {
          "indexed": false,
          "internalType": "uint256",
          "name": "id",
          "type": "uint256"
        },
        {
          "indexed": false,
          "internalType": "uint256",
          "name": "dna",
          "type": "uint256"
        }
      ],
      "name": "NewLip",
      "type": "event"
    },
    {
      "anonymous": false,
      "inputs": [
        {
          "indexed": true,
          "internalType": "address",
          "name": "previousOwner",
          "type": "address"
        },
        {
          "indexed": true,
          "internalType": "address",
          "name": "newOwner",
          "type": "address"
        }
      ],
      "name": "OwnershipTransferred",
      "type": "event"
    },
    {
      "anonymous": false,
      "inputs": [
        {
          "indexed": true,
          "internalType": "address",
          "name": "from",
          "type": "address"
        },
        {
          "indexed": true,
          "internalType": "address",
          "name": "to",
          "type": "address"
        },
        {
          "indexed": true,
          "internalType": "uint256",
          "name": "tokenId",
          "type": "uint256"
        }
      ],
      "name": "Transfer",
      "type": "event"
    },
    {
      "inputs": [
        {
          "internalType": "address",
          "name": "to",
          "type": "address"
        },
        {
          "internalType": "uint256",
          "name": "tokenId",
          "type": "uint256"
        }
      ],
      "name": "approve",
      "outputs": [],
      "stateMutability": "nonpayable",
      "type": "function"
    },
    {
      "inputs": [
        {
          "internalType": "address",
          "name": "owner",
          "type": "address"
        }
      ],
      "name": "balanceOf",
      "outputs": [
        {
          "internalType": "uint256",
          "name": "",
          "type": "uint256"
        }
      ],
      "stateMutability": "view",
      "type": "function",
      "constant": true
    },
    {
      "inputs": [
        {
          "internalType": "uint256",
          "name": "tokenId",
          "type": "uint256"
        }
      ],
      "name": "getApproved",
      "outputs": [
        {
          "internalType": "address",
          "name": "",
          "type": "address"
        }
      ],
      "stateMutability": "view",
      "type": "function",
      "constant": true
    },
    {
      "inputs": [
        {
          "internalType": "address",
          "name": "owner",
          "type": "address"
        },
        {
          "internalType": "address",
          "name": "operator",
          "type": "address"
        }
      ],
      "name": "isApprovedForAll",
      "outputs": [
        {
          "internalType": "bool",
          "name": "",
          "type": "bool"
        }
      ],
      "stateMutability": "view",
      "type": "function",
      "constant": true
    },
    {
      "inputs": [
        {
          "internalType": "uint256",
          "name": "",
          "type": "uint256"
        }
      ],
      "name": "lips",
      "outputs": [
        {
          "internalType": "string",
          "name": "name",
          "type": "string"
        },
        {
          "internalType": "uint256",
          "name": "id",
          "type": "uint256"
        },
        {
          "internalType": "uint256",
          "name": "dna",
          "type": "uint256"
        },
        {
          "internalType": "uint8",
          "name": "level",
          "type": "uint8"
        },
        {
          "internalType": "uint8",
          "name": "rarity",
          "type": "uint8"
        }
      ],
      "stateMutability": "view",
      "type": "function",
      "constant": true
    },
    {
      "inputs": [],
      "name": "name",
      "outputs": [
        {
          "internalType": "string",
          "name": "",
          "type": "string"
        }
      ],
      "stateMutability": "view",
      "type": "function",
      "constant": true
    },
    {
      "inputs": [],
      "name": "owner",
      "outputs": [
        {
          "internalType": "address",
          "name": "",
          "type": "address"
        }
      ],
      "stateMutability": "view",
      "type": "function",
      "constant": true
    },
    {
      "inputs": [
        {
          "internalType": "uint256",
          "name": "tokenId",
          "type": "uint256"
        }
      ],
      "name": "ownerOf",
      "outputs": [
        {
          "internalType": "address",
          "name": "",
          "type": "address"
        }
      ],
      "stateMutability": "view",
      "type": "function",
      "constant": true
    },
    {
      "inputs": [],
      "name": "renounceOwnership",
      "outputs": [],
      "stateMutability": "nonpayable",
      "type": "function"
    },
    {
      "inputs": [
        {
          "internalType": "address",
          "name": "from",
          "type": "address"
        },
        {
          "internalType": "address",
          "name": "to",
          "type": "address"
        },
        {
          "internalType": "uint256",
          "name": "tokenId",
          "type": "uint256"
        }
      ],
      "name": "safeTransferFrom",
      "outputs": [],
      "stateMutability": "nonpayable",
      "type": "function"
    },
    {
      "inputs": [
        {
          "internalType": "address",
          "name": "from",
          "type": "address"
        },
        {
          "internalType": "address",
          "name": "to",
          "type": "address"
        },
        {
          "internalType": "uint256",
          "name": "tokenId",
          "type": "uint256"
        },
        {
          "internalType": "bytes",
          "name": "_data",
          "type": "bytes"
        }
      ],
      "name": "safeTransferFrom",
      "outputs": [],
      "stateMutability": "nonpayable",
      "type": "function"
    },
    {
      "inputs": [
        {
          "internalType": "address",
          "name": "operator",
          "type": "address"
        },
        {
          "internalType": "bool",
          "name": "approved",
          "type": "bool"
        }
      ],
      "name": "setApprovalForAll",
      "outputs": [],
      "stateMutability": "nonpayable",
      "type": "function"
    },
    {
      "inputs": [
        {
          "internalType": "bytes4",
          "name": "interfaceId",
          "type": "bytes4"
        }
      ],
      "name": "supportsInterface",
      "outputs": [
        {
          "internalType": "bool",
          "name": "",
          "type": "bool"
        }
      ],
      "stateMutability": "view",
      "type": "function",
      "constant": true
    },
    {
      "inputs": [],
      "name": "symbol",
      "outputs": [
        {
          "internalType": "string",
          "name": "",
          "type": "string"
        }
      ],
      "stateMutability": "view",
      "type": "function",
      "constant": true
    },
    {
      "inputs": [
        {
          "internalType": "uint256",
          "name": "tokenId",
          "type": "uint256"
        }
      ],
      "name": "tokenURI",
      "outputs": [
        {
          "internalType": "string",
          "name": "",
          "type": "string"
        }
      ],
      "stateMutability": "view",
      "type": "function",
      "constant": true
    },
    {
      "inputs": [
        {
          "internalType": "address",
          "name": "from",
          "type": "address"
        },
        {
          "internalType": "address",
          "name": "to",
          "type": "address"
        },
        {
          "internalType": "uint256",
          "name": "tokenId",
          "type": "uint256"
        }
      ],
      "name": "transferFrom",
      "outputs": [],
      "stateMutability": "nonpayable",
      "type": "function"
    },
    {
      "inputs": [
        {
          "internalType": "address",
          "name": "newOwner",
          "type": "address"
        }
      ],
      "name": "transferOwnership",
      "outputs": [],
      "stateMutability": "nonpayable",
      "type": "function"
    },
    {
      "inputs": [
        {
          "internalType": "uint256",
          "name": "_fee",
          "type": "uint256"
        }
      ],
      "name": "updateFee",
      "outputs": [],
      "stateMutability": "nonpayable",
      "type": "function"
    },
    {
      "inputs": [],
      "name": "withdraw",
      "outputs": [],
      "stateMutability": "payable",
      "type": "function",
      "payable": true
    },
    {
      "inputs": [
        {
          "internalType": "string",
          "name": "_name",
          "type": "string"
        }
      ],
      "name": "createRandomLip",
      "outputs": [],
      "stateMutability": "payable",
      "type": "function",
      "payable": true
    },
    {
      "inputs": [],
      "name": "getLips",
      "outputs": [
        {
          "components": [
            {
              "internalType": "string",
              "name": "name",
              "type": "string"
            },
            {
              "internalType": "uint256",
              "name": "id",
              "type": "uint256"
            },
            {
              "internalType": "uint256",
              "name": "dna",
              "type": "uint256"
            },
            {
              "internalType": "uint8",
              "name": "level",
              "type": "uint8"
            },
            {
              "internalType": "uint8",
              "name": "rarity",
              "type": "uint8"
            }
          ],
          "internalType": "struct LipToken.Lip[]",
          "name": "",
          "type": "tuple[]"
        }
      ],
      "stateMutability": "view",
      "type": "function",
      "constant": true
    },
    {
      "inputs": [],
      "name": "moneySmartContract",
      "outputs": [
        {
          "internalType": "uint256",
          "name": "",
          "type": "uint256"
        }
      ],
      "stateMutability": "view",
      "type": "function",
      "constant": true
    },
    {
      "inputs": [],
      "name": "addressSmartContract",
      "outputs": [
        {
          "internalType": "address",
          "name": "",
          "type": "address"
        }
      ],
      "stateMutability": "view",
      "type": "function",
      "constant": true
    },
    {
      "inputs": [
        {
          "internalType": "address",
          "name": "_owner",
          "type": "address"
        }
      ],
      "name": "getOwnerLips",
      "outputs": [
        {
          "components": [
            {
              "internalType": "string",
              "name": "name",
              "type": "string"
            },
            {
              "internalType": "uint256",
              "name": "id",
              "type": "uint256"
            },
            {
              "internalType": "uint256",
              "name": "dna",
              "type": "uint256"
            },
            {
              "internalType": "uint8",
              "name": "level",
              "type": "uint8"
            },
            {
              "internalType": "uint8",
              "name": "rarity",
              "type": "uint8"
            }
          ],
          "internalType": "struct LipToken.Lip[]",
          "name": "",
          "type": "tuple[]"
        }
      ],
      "stateMutability": "view",
      "type": "function",
      "constant": true
    },
    {
      "inputs": [
        {
          "internalType": "uint256",
          "name": "_lipId",
          "type": "uint256"
        }
      ],
      "name": "levelUp",
      "outputs": [],
      "stateMutability": "nonpayable",
      "type": "function"
    }
  ],
  "bytecode": "0x6080604052670de0b6b3a76400006008553480156200001d57600080fd5b50604051620024e7380380620024e7833981016040819052620000409162000243565b81518290829062000059906000906020850190620000ea565b5080516200006f906001906020840190620000ea565b5050506200008c620000866200009460201b60201c565b62000098565b5050620002fd565b3390565b600680546001600160a01b038381166001600160a01b0319831681179093556040519116919082907f8be0079c531659141344cd1fd0a4f28419497f9722a3daafe3b4186f6b6457e090600090a35050565b828054620000f890620002aa565b90600052602060002090601f0160209004810192826200011c576000855562000167565b82601f106200013757805160ff191683800117855562000167565b8280016001018555821562000167579182015b82811115620001675782518255916020019190600101906200014a565b506200017592915062000179565b5090565b5b808211156200017557600081556001016200017a565b600082601f830112620001a1578081fd5b81516001600160401b0380821115620001be57620001be620002e7565b604051601f8301601f19908116603f01168101908282118183101715620001e957620001e9620002e7565b8160405283815260209250868385880101111562000205578485fd5b8491505b8382101562000228578582018301518183018401529082019062000209565b838211156200023957848385830101525b9695505050505050565b6000806040838503121562000256578182fd5b82516001600160401b03808211156200026d578384fd5b6200027b8683870162000190565b9350602085015191508082111562000291578283fd5b50620002a08582860162000190565b9150509250929050565b600281046001821680620002bf57607f821691505b60208210811415620002e157634e487b7160e01b600052602260045260246000fd5b50919050565b634e487b7160e01b600052604160045260246000fd5b6121da806200030d6000396000f3fe6080604052600436106101665760003560e01c8063715018a6116100d157806399470ee61161008a578063c2f5168a11610064578063c2f5168a14610401578063c87b56dd14610416578063e985e9c514610436578063f2fde38b1461045657610166565b806399470ee6146103ac578063a22cb465146103c1578063b88d4fde146103e157610166565b8063715018a61461030b57806383b5daf7146103205780638c0b9c54146103425780638da5cb5b146103625780639012c4a81461037757806395d89b411461039757610166565b80633ccfd60b116101235780633ccfd60b1461025257806342842e0e1461025a5780635ec163db1461027a5780636352211e146102ab578063698d640c146102cb57806370a08231146102de57610166565b806301ffc9a71461016b57806306fdde03146101a1578063081812fc146101c3578063095ea7b3146101f05780630ce90ec21461021257806323b872dd14610232575b600080fd5b34801561017757600080fd5b5061018b610186366004611981565b610476565b6040516101989190611b7e565b60405180910390f35b3480156101ad57600080fd5b506101b66104be565b6040516101989190611b89565b3480156101cf57600080fd5b506101e36101de3660046119ff565b610550565b6040516101989190611a92565b3480156101fc57600080fd5b5061021061020b366004611958565b61059c565b005b34801561021e57600080fd5b5061021061022d3660046119ff565b610634565b34801561023e57600080fd5b5061021061024d36600461186a565b6106b9565b6102106106f1565b34801561026657600080fd5b5061021061027536600461186a565b610776565b34801561028657600080fd5b5061029a6102953660046119ff565b610791565b604051610198959493929190611b9c565b3480156102b757600080fd5b506101e36102c63660046119ff565b610867565b6102106102d93660046119b9565b61089c565b3480156102ea57600080fd5b506102fe6102f936600461181e565b6108b7565b604051610198919061203c565b34801561031757600080fd5b506102106108fb565b34801561032c57600080fd5b50610335610946565b6040516101989190611ae3565b34801561034e57600080fd5b5061033561035d36600461181e565b610a6c565b34801561036e57600080fd5b506101e3610c5e565b34801561038357600080fd5b506102106103923660046119ff565b610c6d565b3480156103a357600080fd5b506101b6610cb1565b3480156103b857600080fd5b506102fe610cc0565b3480156103cd57600080fd5b506102106103dc36600461191e565b610cc4565b3480156103ed57600080fd5b506102106103fc3660046118a5565b610cd6565b34801561040d57600080fd5b506101e3610d15565b34801561042257600080fd5b506101b66104313660046119ff565b610d19565b34801561044257600080fd5b5061018b610451366004611838565b610d9c565b34801561046257600080fd5b5061021061047136600461181e565b610dca565b60006001600160e01b031982166380ac58cd60e01b14806104a757506001600160e01b03198216635b5e139f60e01b145b806104b657506104b682610e38565b90505b919050565b6060600080546104cd906120c2565b80601f01602080910402602001604051908101604052809291908181526020018280546104f9906120c2565b80156105465780601f1061051b57610100808354040283529160200191610546565b820191906000526020600020905b81548152906001019060200180831161052957829003601f168201915b5050505050905090565b600061055b82610e51565b6105805760405162461bcd60e51b815260040161057790611e91565b60405180910390fd5b506000908152600460205260409020546001600160a01b031690565b60006105a782610867565b9050806001600160a01b0316836001600160a01b031614156105db5760405162461bcd60e51b815260040161057790611faa565b806001600160a01b03166105ed610e6e565b6001600160a01b03161480610609575061060981610451610e6e565b6106255760405162461bcd60e51b815260040161057790611d6c565b61062f8383610e72565b505050565b3361063e82610867565b6001600160a01b03161461065157600080fd5b60006009828154811061067457634e487b7160e01b600052603260045260246000fd5b6000918252602082206003600490920201908101805491935060ff9091169161069c83612118565b91906101000a81548160ff021916908360ff160217905550505050565b6106ca6106c4610e6e565b82610ee0565b6106e65760405162461bcd60e51b815260040161057790611feb565b61062f838383610f65565b6106f9610e6e565b6001600160a01b031661070a610c5e565b6001600160a01b0316146107305760405162461bcd60e51b815260040161057790611edd565b600061073a610c5e565b6040519091506001600160a01b038216904780156108fc02916000818181858888f19350505050158015610772573d6000803e3d6000fd5b5050565b61062f83838360405180602001604052806000815250610cd6565b600981815481106107a157600080fd5b90600052602060002090600402016000915090508060000180546107c4906120c2565b80601f01602080910402602001604051908101604052809291908181526020018280546107f0906120c2565b801561083d5780601f106108125761010080835404028352916020019161083d565b820191906000526020600020905b81548152906001019060200180831161082057829003601f168201915b50505050600183015460028401546003909401549293909290915060ff8082169161010090041685565b6000818152600260205260408120546001600160a01b0316806104b65760405162461bcd60e51b815260040161057790611e13565b6008543410156108ab57600080fd5b6108b481611092565b50565b60006001600160a01b0382166108df5760405162461bcd60e51b815260040161057790611dc9565b506001600160a01b031660009081526003602052604090205490565b610903610e6e565b6001600160a01b0316610914610c5e565b6001600160a01b03161461093a5760405162461bcd60e51b815260040161057790611edd565b61094460006111e7565b565b60606009805480602002602001604051908101604052809291908181526020016000905b82821015610a6357838290600052602060002090600402016040518060a001604052908160008201805461099d906120c2565b80601f01602080910402602001604051908101604052809291908181526020018280546109c9906120c2565b8015610a165780601f106109eb57610100808354040283529160200191610a16565b820191906000526020600020905b8154815290600101906020018083116109f957829003601f168201915b50505091835250506001828101546020808401919091526002840154604084015260039093015460ff8082166060850152610100909104166080909201919091529183529201910161096a565b50505050905090565b60606000610a79836108b7565b67ffffffffffffffff811115610a9f57634e487b7160e01b600052604160045260246000fd5b604051908082528060200260200182016040528015610ad857816020015b610ac56116c3565b815260200190600190039081610abd5790505b5090506000805b600954811015610c5557846001600160a01b0316610afc82610867565b6001600160a01b03161415610c435760098181548110610b2c57634e487b7160e01b600052603260045260246000fd5b90600052602060002090600402016040518060a0016040529081600082018054610b55906120c2565b80601f0160208091040260200160405190810160405280929190818152602001828054610b81906120c2565b8015610bce5780601f10610ba357610100808354040283529160200191610bce565b820191906000526020600020905b815481529060010190602001808311610bb157829003601f168201915b5050509183525050600182015460208201526002820154604082015260039091015460ff8082166060840152610100909104166080909101528351849084908110610c2957634e487b7160e01b600052603260045260246000fd5b60200260200101819052508180610c3f906120fd565b9250505b80610c4d816120fd565b915050610adf565b50909392505050565b6006546001600160a01b031690565b610c75610e6e565b6001600160a01b0316610c86610c5e565b6001600160a01b031614610cac5760405162461bcd60e51b815260040161057790611edd565b600855565b6060600180546104cd906120c2565b4790565b610772610ccf610e6e565b8383611239565b610ce7610ce1610e6e565b83610ee0565b610d035760405162461bcd60e51b815260040161057790611feb565b610d0f848484846112dc565b50505050565b3090565b6060610d2482610e51565b610d405760405162461bcd60e51b815260040161057790611f5b565b6000610d4a61130f565b90506000815111610d6a5760405180602001604052806000815250610d95565b80610d7484611321565b604051602001610d85929190611a43565b6040516020818303038152906040525b9392505050565b6001600160a01b03918216600090815260056020908152604080832093909416825291909152205460ff1690565b610dd2610e6e565b6001600160a01b0316610de3610c5e565b6001600160a01b031614610e095760405162461bcd60e51b815260040161057790611edd565b6001600160a01b038116610e2f5760405162461bcd60e51b815260040161057790611c28565b6108b4816111e7565b6001600160e01b031981166301ffc9a760e01b14919050565b6000908152600260205260409020546001600160a01b0316151590565b3390565b600081815260046020526040902080546001600160a01b0319166001600160a01b0384169081179091558190610ea782610867565b6001600160a01b03167f8c5be1e5ebec7d5bd14f71427d1e84f3dd0314c0f7b2291e5b200ac8c7c3b92560405160405180910390a45050565b6000610eeb82610e51565b610f075760405162461bcd60e51b815260040161057790611d20565b6000610f1283610867565b9050806001600160a01b0316846001600160a01b03161480610f4d5750836001600160a01b0316610f4284610550565b6001600160a01b0316145b80610f5d5750610f5d8185610d9c565b949350505050565b826001600160a01b0316610f7882610867565b6001600160a01b031614610f9e5760405162461bcd60e51b815260040161057790611f12565b6001600160a01b038216610fc45760405162461bcd60e51b815260040161057790611ca5565b610fcf83838361062f565b610fda600082610e72565b6001600160a01b038316600090815260036020526040812080546001929061100390849061207f565b90915550506001600160a01b0382166000908152600360205260408120805460019290611031908490612053565b909155505060008181526002602052604080822080546001600160a01b0319166001600160a01b0386811691821790925591518493918716917fddf252ad1be2c89b69c2b068fc378daa952ba7f163c4a11628f55a4df523b3ef91a4505050565b600061109e606461143c565b905060006110b2662386f26fc1000061143c565b6040805160a08101825285815260075460208083019190915291810183905260016060820181905260ff86166080830152600980549182018155600052815180519495509193849360049092027f6e1540171b6c0c960b71a7020d9f60077f6af931a8bbf590da0223dacf75c7af01926111309284929101906116f8565b50602082015160018201556040820151600282015560608201516003909101805460809093015160ff9081166101000261ff00199190931660ff199094169390931792909216179055600754611187903390611476565b336001600160a01b03167f24d2d558f98bdd9d21339e119fc0b03e213c7d05affd838ac2ee136d90e3bbeb600754846040516111c4929190612045565b60405180910390a2600780549060006111dc836120fd565b919050555050505050565b600680546001600160a01b038381166001600160a01b0319831681179093556040519116919082907f8be0079c531659141344cd1fd0a4f28419497f9722a3daafe3b4186f6b6457e090600090a35050565b816001600160a01b0316836001600160a01b0316141561126b5760405162461bcd60e51b815260040161057790611ce9565b6001600160a01b0383811660008181526005602090815260408083209487168084529490915290819020805460ff1916851515179055517f17307eab39ab6107e8899845ad3d59bd9653f200f220920489ca2b5937696c31906112cf908590611b7e565b60405180910390a3505050565b6112e7848484610f65565b6112f384848484611490565b610d0f5760405162461bcd60e51b815260040161057790611bd6565b60408051602081019091526000815290565b60608161134657506040805180820190915260018152600360fc1b60208201526104b9565b8160005b8115611370578061135a816120fd565b91506113699050600a8361206b565b915061134a565b60008167ffffffffffffffff81111561139957634e487b7160e01b600052604160045260246000fd5b6040519080825280601f01601f1916602001820160405280156113c3576020820181803683370190505b5090505b8415610f5d576113d860018361207f565b91506113e5600a86612138565b6113f0906030612053565b60f81b81838151811061141357634e487b7160e01b600052603260045260246000fd5b60200101906001600160f81b031916908160001a905350611435600a8661206b565b94506113c7565b6000804233604051602001611452929190611a72565b60408051601f1981840301815291905280516020909101209050610d958382612138565b6107728282604051806020016040528060008152506115ab565b60006114a4846001600160a01b03166115de565b156115a057836001600160a01b031663150b7a026114c0610e6e565b8786866040518563ffffffff1660e01b81526004016114e29493929190611aa6565b602060405180830381600087803b1580156114fc57600080fd5b505af192505050801561152c575060408051601f3d908101601f191682019092526115299181019061199d565b60015b611586573d80801561155a576040519150601f19603f3d011682016040523d82523d6000602084013e61155f565b606091505b50805161157e5760405162461bcd60e51b815260040161057790611bd6565b805181602001fd5b6001600160e01b031916630a85bd0160e11b149050610f5d565b506001949350505050565b6115b583836115e4565b6115c26000848484611490565b61062f5760405162461bcd60e51b815260040161057790611bd6565b3b151590565b6001600160a01b03821661160a5760405162461bcd60e51b815260040161057790611e5c565b61161381610e51565b156116305760405162461bcd60e51b815260040161057790611c6e565b61163c6000838361062f565b6001600160a01b0382166000908152600360205260408120805460019290611665908490612053565b909155505060008181526002602052604080822080546001600160a01b0319166001600160a01b03861690811790915590518392907fddf252ad1be2c89b69c2b068fc378daa952ba7f163c4a11628f55a4df523b3ef908290a45050565b6040518060a00160405280606081526020016000815260200160008152602001600060ff168152602001600060ff1681525090565b828054611704906120c2565b90600052602060002090601f016020900481019282611726576000855561176c565b82601f1061173f57805160ff191683800117855561176c565b8280016001018555821561176c579182015b8281111561176c578251825591602001919060010190611751565b5061177892915061177c565b5090565b5b80821115611778576000815560010161177d565b600067ffffffffffffffff808411156117ac576117ac612178565b604051601f8501601f19908116603f011681019082821181831017156117d4576117d4612178565b816040528093508581528686860111156117ed57600080fd5b858560208301376000602087830101525050509392505050565b80356001600160a01b03811681146104b957600080fd5b60006020828403121561182f578081fd5b610d9582611807565b6000806040838503121561184a578081fd5b61185383611807565b915061186160208401611807565b90509250929050565b60008060006060848603121561187e578081fd5b61188784611807565b925061189560208501611807565b9150604084013590509250925092565b600080600080608085870312156118ba578081fd5b6118c385611807565b93506118d160208601611807565b925060408501359150606085013567ffffffffffffffff8111156118f3578182fd5b8501601f81018713611903578182fd5b61191287823560208401611791565b91505092959194509250565b60008060408385031215611930578182fd5b61193983611807565b91506020830135801515811461194d578182fd5b809150509250929050565b6000806040838503121561196a578182fd5b61197383611807565b946020939093013593505050565b600060208284031215611992578081fd5b8135610d958161218e565b6000602082840312156119ae578081fd5b8151610d958161218e565b6000602082840312156119ca578081fd5b813567ffffffffffffffff8111156119e0578182fd5b8201601f810184136119f0578182fd5b610f5d84823560208401611791565b600060208284031215611a10578081fd5b5035919050565b60008151808452611a2f816020860160208601612096565b601f01601f19169290920160200192915050565b60008351611a55818460208801612096565b835190830190611a69818360208801612096565b01949350505050565b91825260601b6bffffffffffffffffffffffff1916602082015260340190565b6001600160a01b0391909116815260200190565b6001600160a01b0385811682528416602082015260408101839052608060608201819052600090611ad990830184611a17565b9695505050505050565b60208082528251828201819052600091906040908185019080840286018301878501865b83811015611b7057603f19898403018552815160a08151818652611b2d82870182611a17565b838b0151878c0152898401518a88015260608085015160ff9081169189019190915260809485015116939096019290925250509386019390860190600101611b07565b509098975050505050505050565b901515815260200190565b600060208252610d956020830184611a17565b600060a08252611baf60a0830188611a17565b602083019690965250604081019390935260ff918216606084015216608090910152919050565b60208082526032908201527f4552433732313a207472616e7366657220746f206e6f6e20455243373231526560408201527131b2b4bb32b91034b6b83632b6b2b73a32b960711b606082015260800190565b60208082526026908201527f4f776e61626c653a206e6577206f776e657220697320746865207a65726f206160408201526564647265737360d01b606082015260800190565b6020808252601c908201527f4552433732313a20746f6b656e20616c7265616479206d696e74656400000000604082015260600190565b60208082526024908201527f4552433732313a207472616e7366657220746f20746865207a65726f206164646040820152637265737360e01b606082015260800190565b60208082526019908201527f4552433732313a20617070726f766520746f2063616c6c657200000000000000604082015260600190565b6020808252602c908201527f4552433732313a206f70657261746f7220717565727920666f72206e6f6e657860408201526b34b9ba32b73a103a37b5b2b760a11b606082015260800190565b60208082526038908201527f4552433732313a20617070726f76652063616c6c6572206973206e6f74206f7760408201527f6e6572206e6f7220617070726f76656420666f7220616c6c0000000000000000606082015260800190565b6020808252602a908201527f4552433732313a2062616c616e636520717565727920666f7220746865207a65604082015269726f206164647265737360b01b606082015260800190565b60208082526029908201527f4552433732313a206f776e657220717565727920666f72206e6f6e657869737460408201526832b73a103a37b5b2b760b91b606082015260800190565b6020808252818101527f4552433732313a206d696e7420746f20746865207a65726f2061646472657373604082015260600190565b6020808252602c908201527f4552433732313a20617070726f76656420717565727920666f72206e6f6e657860408201526b34b9ba32b73a103a37b5b2b760a11b606082015260800190565b6020808252818101527f4f776e61626c653a2063616c6c6572206973206e6f7420746865206f776e6572604082015260600190565b60208082526029908201527f4552433732313a207472616e73666572206f6620746f6b656e2074686174206960408201526839903737ba1037bbb760b91b606082015260800190565b6020808252602f908201527f4552433732314d657461646174613a2055524920717565727920666f72206e6f60408201526e3732bc34b9ba32b73a103a37b5b2b760891b606082015260800190565b60208082526021908201527f4552433732313a20617070726f76616c20746f2063757272656e74206f776e656040820152603960f91b606082015260800190565b60208082526031908201527f4552433732313a207472616e736665722063616c6c6572206973206e6f74206f6040820152701ddb995c881b9bdc88185c1c1c9bdd9959607a1b606082015260800190565b90815260200190565b918252602082015260400190565b600082198211156120665761206661214c565b500190565b60008261207a5761207a612162565b500490565b6000828210156120915761209161214c565b500390565b60005b838110156120b1578181015183820152602001612099565b83811115610d0f5750506000910152565b6002810460018216806120d657607f821691505b602082108114156120f757634e487b7160e01b600052602260045260246000fd5b50919050565b60006000198214156121115761211161214c565b5060010190565b600060ff821660ff81141561212f5761212f61214c565b60010192915050565b60008261214757612147612162565b500690565b634e487b7160e01b600052601160045260246000fd5b634e487b7160e01b600052601260045260246000fd5b634e487b7160e01b600052604160045260246000fd5b6001600160e01b0319811681146108b457600080fdfea264697066735822122073fe87aea166eef0ef4a1da80d85bf7e3d788acf9bd29729e2e1bfc5233defde64736f6c63430008010033",
  "immutableReferences": {},
  "source": "// SPDX-License-Identifier: MIT\npragma solidity ^0.8.0;\n\n// Importacin de los Smart Contract: ERC721.sol y Ownable.sol\nimport \"@openzeppelin/contracts/token/ERC721/ERC721.sol\";\nimport \"@openzeppelin/contracts/access/Ownable.sol\";\n\n// Creacin del Smart Contract para el Videojuego NFT\ncontract LipToken is ERC721, Ownable {\n\n    // Constructor de mi Smart Contract\n    constructor (string memory _name, string memory _symbol)\n    ERC721(_name, _symbol) {}\n\n    // ============================================\n    // Declaraciones iniciales\n\n    // Contador de tokens NFT\n    uint256 COUNTER;\n    // Fijacin en el precio de los Tokens NFT\n    uint256 fee = 1 ether;\n    // Estructura de datos con las propiedades del lip (labio)\n    struct Lip {\n        string name;\n        uint256 id;\n        uint256 dna;\n        uint8 level;\n        uint8 rarity;\n    }\n    // Estructura de almacenamiento\n    Lip [] public lips;\n    // Declaracin de un evento \n    event NewLip(address indexed owner, uint256 id, uint256 dna);\n\n    // ============================================\n    // Funciones de ayuda \n\n    // Asignacin de un nmero aleatorio\n    function _createRandomNum(uint256 _mod) internal view returns (uint256) {\n        uint256 randomNum = uint256(keccak256(abi.encodePacked(block.timestamp, msg.sender)));\n        return randomNum % _mod; \n    }\n\n    // Actualizacin del precio del Token NFT\n    function updateFee(uint256 _fee) external onlyOwner {\n        fee = _fee;\n    }\n\n    // Extraccin de los ethers del Smart Contract hacia el Owner \n    function withdraw() external payable onlyOwner {\n        address payable _owner = payable(owner());\n        _owner.transfer(address(this).balance);\n    }\n\n    // Creacin del Token NFT (lip/labio)\n    function _createLip(string memory _name) internal {\n        uint8 randRarity = uint8(_createRandomNum(100));\n        uint randDna = _createRandomNum(10**16);\n        Lip memory newLip = Lip(_name, COUNTER, randDna, 1, randRarity);\n        lips.push(newLip);\n        _safeMint(msg.sender, COUNTER);\n        emit NewLip(msg.sender, COUNTER, randDna);\n        COUNTER++;\n    }\n\n    // ============================================\n    // Creacin de un labio aleatorio\n    function createRandomLip(string memory _name) public payable {\n        require(msg.value >= fee);\n        _createLip(_name);\n    }\n\n    // Obtencin de todos los lips (labios)\n    function getLips() public view returns (Lip [] memory) {\n        return lips;\n    }\n\n    // Visualizar el balance del Smart Contract \n    function moneySmartContract() public view returns (uint256){\n        return address(this).balance;\n    }\n\n    // Visualizar la direccin del Smart Contract\n    function addressSmartContract() public view returns (address) {\n        return address(this);\n    }\n\n    // Obtencin de los tokens NFT usuario\n    function getOwnerLips(address _owner) public view returns (Lip [] memory) {\n        Lip [] memory result = new Lip [] (balanceOf(_owner));\n        uint256 counter = 0;\n        for (uint256 i = 0; i <lips.length; i++) {\n            if (ownerOf(i) == _owner) {\n                result[counter] = lips[i];\n                counter++;\n            }\n        }\n        return result;\n    }\n\n    // Subir de nivel los tokens NFT \n    function levelUp(uint256 _lipId) public {\n        require(ownerOf(_lipId) == msg.sender);\n        Lip storage lip = lips[_lipId];\n        lip.level++;\n    }\n\n\n}",
  "sourcePath": "/Users/joan_amengual/GitHub/NFT/BLOQUE 3 - VIDEOJUEGO NFT/nft/contracts/LipToken.sol",
  "compiler": {
    "name": "solc",
    "version": "0.8.1+commit.df193b15.Emscripten.clang"
  },
  "schemaVersion": "3.4.2",
  "updatedAt": "2021-12-10T15:05:10.510Z",
  "networkType": "ethereum",
  "devdoc": {
    "kind": "dev",
    "methods": {
      "approve(address,uint256)": {
        "details": "See {IERC721-approve}."
      },
      "balanceOf(address)": {
        "details": "See {IERC721-balanceOf}."
      },
      "getApproved(uint256)": {
        "details": "See {IERC721-getApproved}."
      },
      "isApprovedForAll(address,address)": {
        "details": "See {IERC721-isApprovedForAll}."
      },
      "name()": {
        "details": "See {IERC721Metadata-name}."
      },
      "owner()": {
        "details": "Returns the address of the current owner."
      },
      "ownerOf(uint256)": {
        "details": "See {IERC721-ownerOf}."
      },
      "renounceOwnership()": {
        "details": "Leaves the contract without owner. It will not be possible to call `onlyOwner` functions anymore. Can only be called by the current owner. NOTE: Renouncing ownership will leave the contract without an owner, thereby removing any functionality that is only available to the owner."
      },
      "safeTransferFrom(address,address,uint256)": {
        "details": "See {IERC721-safeTransferFrom}."
      },
      "safeTransferFrom(address,address,uint256,bytes)": {
        "details": "See {IERC721-safeTransferFrom}."
      },
      "setApprovalForAll(address,bool)": {
        "details": "See {IERC721-setApprovalForAll}."
      },
      "supportsInterface(bytes4)": {
        "details": "See {IERC165-supportsInterface}."
      },
      "symbol()": {
        "details": "See {IERC721Metadata-symbol}."
      },
      "tokenURI(uint256)": {
        "details": "See {IERC721Metadata-tokenURI}."
      },
      "transferFrom(address,address,uint256)": {
        "details": "See {IERC721-transferFrom}."
      },
      "transferOwnership(address)": {
        "details": "Transfers ownership of the contract to a new account (`newOwner`). Can only be called by the current owner."
      }
    },
    "version": 1
  },
  "userdoc": {
    "kind": "user",
    "methods": {},
    "version": 1
  }
}