{
  "contractName": "LipToken",
  "abi": [
    {
      "inputs": [
        {
          "internalType": "string",
          "name": "_name",
          "type": "string"
        },
        {
          "internalType": "string",
          "name": "_symbol",
          "type": "string"
        }
      ],
      "stateMutability": "nonpayable",
      "type": "constructor"
    },
    {
      "anonymous": false,
      "inputs": [
        {
          "indexed": true,
          "internalType": "address",
          "name": "owner",
          "type": "address"
        },
        {
          "indexed": true,
          "internalType": "address",
          "name": "approved",
          "type": "address"
        },
        {
          "indexed": true,
          "internalType": "uint256",
          "name": "tokenId",
          "type": "uint256"
        }
      ],
      "name": "Approval",
      "type": "event"
    },
    {
      "anonymous": false,
      "inputs": [
        {
          "indexed": true,
          "internalType": "address",
          "name": "owner",
          "type": "address"
        },
        {
          "indexed": true,
          "internalType": "address",
          "name": "operator",
          "type": "address"
        },
        {
          "indexed": false,
          "internalType": "bool",
          "name": "approved",
          "type": "bool"
        }
      ],
      "name": "ApprovalForAll",
      "type": "event"
    },
    {
      "anonymous": false,
      "inputs": [
        {
          "indexed": true,
          "internalType": "address",
          "name": "owner",
          "type": "address"
        },
        {
          "indexed": false,
          "internalType": "uint256",
          "name": "id",
          "type": "uint256"
        },
        {
          "indexed": false,
          "internalType": "uint256",
          "name": "dna",
          "type": "uint256"
        }
      ],
      "name": "NewLip",
      "type": "event"
    },
    {
      "anonymous": false,
      "inputs": [
        {
          "indexed": true,
          "internalType": "address",
          "name": "previousOwner",
          "type": "address"
        },
        {
          "indexed": true,
          "internalType": "address",
          "name": "newOwner",
          "type": "address"
        }
      ],
      "name": "OwnershipTransferred",
      "type": "event"
    },
    {
      "anonymous": false,
      "inputs": [
        {
          "indexed": true,
          "internalType": "address",
          "name": "from",
          "type": "address"
        },
        {
          "indexed": true,
          "internalType": "address",
          "name": "to",
          "type": "address"
        },
        {
          "indexed": true,
          "internalType": "uint256",
          "name": "tokenId",
          "type": "uint256"
        }
      ],
      "name": "Transfer",
      "type": "event"
    },
    {
      "inputs": [
        {
          "internalType": "address",
          "name": "to",
          "type": "address"
        },
        {
          "internalType": "uint256",
          "name": "tokenId",
          "type": "uint256"
        }
      ],
      "name": "approve",
      "outputs": [],
      "stateMutability": "nonpayable",
      "type": "function"
    },
    {
      "inputs": [
        {
          "internalType": "address",
          "name": "owner",
          "type": "address"
        }
      ],
      "name": "balanceOf",
      "outputs": [
        {
          "internalType": "uint256",
          "name": "",
          "type": "uint256"
        }
      ],
      "stateMutability": "view",
      "type": "function",
      "constant": true
    },
    {
      "inputs": [
        {
          "internalType": "uint256",
          "name": "tokenId",
          "type": "uint256"
        }
      ],
      "name": "getApproved",
      "outputs": [
        {
          "internalType": "address",
          "name": "",
          "type": "address"
        }
      ],
      "stateMutability": "view",
      "type": "function",
      "constant": true
    },
    {
      "inputs": [
        {
          "internalType": "address",
          "name": "owner",
          "type": "address"
        },
        {
          "internalType": "address",
          "name": "operator",
          "type": "address"
        }
      ],
      "name": "isApprovedForAll",
      "outputs": [
        {
          "internalType": "bool",
          "name": "",
          "type": "bool"
        }
      ],
      "stateMutability": "view",
      "type": "function",
      "constant": true
    },
    {
      "inputs": [
        {
          "internalType": "uint256",
          "name": "",
          "type": "uint256"
        }
      ],
      "name": "lips",
      "outputs": [
        {
          "internalType": "string",
          "name": "name",
          "type": "string"
        },
        {
          "internalType": "uint256",
          "name": "id",
          "type": "uint256"
        },
        {
          "internalType": "uint256",
          "name": "dna",
          "type": "uint256"
        },
        {
          "internalType": "uint8",
          "name": "level",
          "type": "uint8"
        },
        {
          "internalType": "uint8",
          "name": "rarity",
          "type": "uint8"
        }
      ],
      "stateMutability": "view",
      "type": "function",
      "constant": true
    },
    {
      "inputs": [],
      "name": "name",
      "outputs": [
        {
          "internalType": "string",
          "name": "",
          "type": "string"
        }
      ],
      "stateMutability": "view",
      "type": "function",
      "constant": true
    },
    {
      "inputs": [],
      "name": "owner",
      "outputs": [
        {
          "internalType": "address",
          "name": "",
          "type": "address"
        }
      ],
      "stateMutability": "view",
      "type": "function",
      "constant": true
    },
    {
      "inputs": [
        {
          "internalType": "uint256",
          "name": "tokenId",
          "type": "uint256"
        }
      ],
      "name": "ownerOf",
      "outputs": [
        {
          "internalType": "address",
          "name": "",
          "type": "address"
        }
      ],
      "stateMutability": "view",
      "type": "function",
      "constant": true
    },
    {
      "inputs": [],
      "name": "renounceOwnership",
      "outputs": [],
      "stateMutability": "nonpayable",
      "type": "function"
    },
    {
      "inputs": [
        {
          "internalType": "address",
          "name": "from",
          "type": "address"
        },
        {
          "internalType": "address",
          "name": "to",
          "type": "address"
        },
        {
          "internalType": "uint256",
          "name": "tokenId",
          "type": "uint256"
        }
      ],
      "name": "safeTransferFrom",
      "outputs": [],
      "stateMutability": "nonpayable",
      "type": "function"
    },
    {
      "inputs": [
        {
          "internalType": "address",
          "name": "from",
          "type": "address"
        },
        {
          "internalType": "address",
          "name": "to",
          "type": "address"
        },
        {
          "internalType": "uint256",
          "name": "tokenId",
          "type": "uint256"
        },
        {
          "internalType": "bytes",
          "name": "_data",
          "type": "bytes"
        }
      ],
      "name": "safeTransferFrom",
      "outputs": [],
      "stateMutability": "nonpayable",
      "type": "function"
    },
    {
      "inputs": [
        {
          "internalType": "address",
          "name": "operator",
          "type": "address"
        },
        {
          "internalType": "bool",
          "name": "approved",
          "type": "bool"
        }
      ],
      "name": "setApprovalForAll",
      "outputs": [],
      "stateMutability": "nonpayable",
      "type": "function"
    },
    {
      "inputs": [
        {
          "internalType": "bytes4",
          "name": "interfaceId",
          "type": "bytes4"
        }
      ],
      "name": "supportsInterface",
      "outputs": [
        {
          "internalType": "bool",
          "name": "",
          "type": "bool"
        }
      ],
      "stateMutability": "view",
      "type": "function",
      "constant": true
    },
    {
      "inputs": [],
      "name": "symbol",
      "outputs": [
        {
          "internalType": "string",
          "name": "",
          "type": "string"
        }
      ],
      "stateMutability": "view",
      "type": "function",
      "constant": true
    },
    {
      "inputs": [
        {
          "internalType": "uint256",
          "name": "tokenId",
          "type": "uint256"
        }
      ],
      "name": "tokenURI",
      "outputs": [
        {
          "internalType": "string",
          "name": "",
          "type": "string"
        }
      ],
      "stateMutability": "view",
      "type": "function",
      "constant": true
    },
    {
      "inputs": [
        {
          "internalType": "address",
          "name": "from",
          "type": "address"
        },
        {
          "internalType": "address",
          "name": "to",
          "type": "address"
        },
        {
          "internalType": "uint256",
          "name": "tokenId",
          "type": "uint256"
        }
      ],
      "name": "transferFrom",
      "outputs": [],
      "stateMutability": "nonpayable",
      "type": "function"
    },
    {
      "inputs": [
        {
          "internalType": "address",
          "name": "newOwner",
          "type": "address"
        }
      ],
      "name": "transferOwnership",
      "outputs": [],
      "stateMutability": "nonpayable",
      "type": "function"
    },
    {
      "inputs": [
        {
          "internalType": "uint256",
          "name": "_fee",
          "type": "uint256"
        }
      ],
      "name": "updateFee",
      "outputs": [],
      "stateMutability": "nonpayable",
      "type": "function"
    },
    {
      "inputs": [],
      "name": "withdraw",
      "outputs": [],
      "stateMutability": "payable",
      "type": "function",
      "payable": true
    },
    {
      "inputs": [
        {
          "internalType": "string",
          "name": "_name",
          "type": "string"
        }
      ],
      "name": "createRandomLip",
      "outputs": [],
      "stateMutability": "payable",
      "type": "function",
      "payable": true
    },
    {
      "inputs": [],
      "name": "getLips",
      "outputs": [
        {
          "components": [
            {
              "internalType": "string",
              "name": "name",
              "type": "string"
            },
            {
              "internalType": "uint256",
              "name": "id",
              "type": "uint256"
            },
            {
              "internalType": "uint256",
              "name": "dna",
              "type": "uint256"
            },
            {
              "internalType": "uint8",
              "name": "level",
              "type": "uint8"
            },
            {
              "internalType": "uint8",
              "name": "rarity",
              "type": "uint8"
            }
          ],
          "internalType": "struct LipToken.Lip[]",
          "name": "",
          "type": "tuple[]"
        }
      ],
      "stateMutability": "view",
      "type": "function",
      "constant": true
    },
    {
      "inputs": [],
      "name": "addressSmartContract",
      "outputs": [
        {
          "internalType": "address",
          "name": "",
          "type": "address"
        }
      ],
      "stateMutability": "view",
      "type": "function",
      "constant": true
    },
    {
      "inputs": [],
      "name": "moneySmartContract",
      "outputs": [
        {
          "internalType": "uint256",
          "name": "",
          "type": "uint256"
        }
      ],
      "stateMutability": "view",
      "type": "function",
      "constant": true
    },
    {
      "inputs": [
        {
          "internalType": "address",
          "name": "_owner",
          "type": "address"
        }
      ],
      "name": "getOwnerLips",
      "outputs": [
        {
          "components": [
            {
              "internalType": "string",
              "name": "name",
              "type": "string"
            },
            {
              "internalType": "uint256",
              "name": "id",
              "type": "uint256"
            },
            {
              "internalType": "uint256",
              "name": "dna",
              "type": "uint256"
            },
            {
              "internalType": "uint8",
              "name": "level",
              "type": "uint8"
            },
            {
              "internalType": "uint8",
              "name": "rarity",
              "type": "uint8"
            }
          ],
          "internalType": "struct LipToken.Lip[]",
          "name": "",
          "type": "tuple[]"
        }
      ],
      "stateMutability": "view",
      "type": "function",
      "constant": true
    },
    {
      "inputs": [
        {
          "internalType": "uint256",
          "name": "_lipId",
          "type": "uint256"
        }
      ],
      "name": "levelUp",
      "outputs": [],
      "stateMutability": "nonpayable",
      "type": "function"
    }
  ],
  "bytecode": "0x6080604052662386f26fc100006008553480156200001c57600080fd5b50604051620024f1380380620024f18339810160408190526200003f916200023a565b81518290829062000058906000906020850190620000e9565b5080516200006e906001906020840190620000e9565b5050506200008b620000856200009360201b60201c565b62000097565b5050620002f4565b3390565b600680546001600160a01b038381166001600160a01b0319831681179093556040519116919082907f8be0079c531659141344cd1fd0a4f28419497f9722a3daafe3b4186f6b6457e090600090a35050565b828054620000f790620002a1565b90600052602060002090601f0160209004810192826200011b576000855562000166565b82601f106200013657805160ff191683800117855562000166565b8280016001018555821562000166579182015b828111156200016657825182559160200191906001019062000149565b506200017492915062000178565b5090565b5b8082111562000174576000815560010162000179565b600082601f830112620001a0578081fd5b81516001600160401b0380821115620001bd57620001bd620002de565b6040516020601f8401601f1916820181018381118382101715620001e557620001e5620002de565b6040528382528584018101871015620001fc578485fd5b8492505b838310156200021f578583018101518284018201529182019162000200565b838311156200023057848185840101525b5095945050505050565b600080604083850312156200024d578182fd5b82516001600160401b038082111562000264578384fd5b62000272868387016200018f565b9350602085015191508082111562000288578283fd5b5062000297858286016200018f565b9150509250929050565b600281046001821680620002b657607f821691505b60208210811415620002d857634e487b7160e01b600052602260045260246000fd5b50919050565b634e487b7160e01b600052604160045260246000fd5b6121ed80620003046000396000f3fe6080604052600436106101665760003560e01c8063715018a6116100d157806399470ee61161008a578063c2f5168a11610064578063c2f5168a14610401578063c87b56dd14610416578063e985e9c514610436578063f2fde38b1461045657610166565b806399470ee6146103ac578063a22cb465146103c1578063b88d4fde146103e157610166565b8063715018a61461030b57806383b5daf7146103205780638c0b9c54146103425780638da5cb5b146103625780639012c4a81461037757806395d89b411461039757610166565b80633ccfd60b116101235780633ccfd60b1461025257806342842e0e1461025a5780635ec163db1461027a5780636352211e146102ab578063698d640c146102cb57806370a08231146102de57610166565b806301ffc9a71461016b57806306fdde03146101a1578063081812fc146101c3578063095ea7b3146101f05780630ce90ec21461021257806323b872dd14610232575b600080fd5b34801561017757600080fd5b5061018b610186366004611994565b610476565b6040516101989190611b91565b60405180910390f35b3480156101ad57600080fd5b506101b66104be565b6040516101989190611b9c565b3480156101cf57600080fd5b506101e36101de366004611a12565b610550565b6040516101989190611aa5565b3480156101fc57600080fd5b5061021061020b36600461196b565b61059c565b005b34801561021e57600080fd5b5061021061022d366004611a12565b610634565b34801561023e57600080fd5b5061021061024d36600461187d565b6106b9565b6102106106f1565b34801561026657600080fd5b5061021061027536600461187d565b610776565b34801561028657600080fd5b5061029a610295366004611a12565b610791565b604051610198959493929190611baf565b3480156102b757600080fd5b506101e36102c6366004611a12565b610867565b6102106102d93660046119cc565b61089c565b3480156102ea57600080fd5b506102fe6102f9366004611831565b6108b7565b604051610198919061204f565b34801561031757600080fd5b506102106108fb565b34801561032c57600080fd5b50610335610946565b6040516101989190611af6565b34801561034e57600080fd5b5061033561035d366004611831565b610a6c565b34801561036e57600080fd5b506101e3610c5e565b34801561038357600080fd5b50610210610392366004611a12565b610c6d565b3480156103a357600080fd5b506101b6610cb1565b3480156103b857600080fd5b506102fe610cc0565b3480156103cd57600080fd5b506102106103dc366004611931565b610cc4565b3480156103ed57600080fd5b506102106103fc3660046118b8565b610d92565b34801561040d57600080fd5b506101e3610dd1565b34801561042257600080fd5b506101b6610431366004611a12565b610dd5565b34801561044257600080fd5b5061018b61045136600461184b565b610e58565b34801561046257600080fd5b50610210610471366004611831565b610e86565b60006001600160e01b031982166380ac58cd60e01b14806104a757506001600160e01b03198216635b5e139f60e01b145b806104b657506104b682610ef4565b90505b919050565b6060600080546104cd906120d5565b80601f01602080910402602001604051908101604052809291908181526020018280546104f9906120d5565b80156105465780601f1061051b57610100808354040283529160200191610546565b820191906000526020600020905b81548152906001019060200180831161052957829003601f168201915b5050505050905090565b600061055b82610f0d565b6105805760405162461bcd60e51b815260040161057790611ea4565b60405180910390fd5b506000908152600460205260409020546001600160a01b031690565b60006105a782610867565b9050806001600160a01b0316836001600160a01b031614156105db5760405162461bcd60e51b815260040161057790611fbd565b806001600160a01b03166105ed610f2a565b6001600160a01b03161480610609575061060981610451610f2a565b6106255760405162461bcd60e51b815260040161057790611d7f565b61062f8383610f2e565b505050565b3361063e82610867565b6001600160a01b03161461065157600080fd5b60006009828154811061067457634e487b7160e01b600052603260045260246000fd5b6000918252602082206003600490920201908101805491935060ff9091169161069c8361212b565b91906101000a81548160ff021916908360ff160217905550505050565b6106ca6106c4610f2a565b82610f9c565b6106e65760405162461bcd60e51b815260040161057790611ffe565b61062f838383611021565b6106f9610f2a565b6001600160a01b031661070a610c5e565b6001600160a01b0316146107305760405162461bcd60e51b815260040161057790611ef0565b600061073a610c5e565b6040519091506001600160a01b038216904780156108fc02916000818181858888f19350505050158015610772573d6000803e3d6000fd5b5050565b61062f83838360405180602001604052806000815250610d92565b600981815481106107a157600080fd5b90600052602060002090600402016000915090508060000180546107c4906120d5565b80601f01602080910402602001604051908101604052809291908181526020018280546107f0906120d5565b801561083d5780601f106108125761010080835404028352916020019161083d565b820191906000526020600020905b81548152906001019060200180831161082057829003601f168201915b50505050600183015460028401546003909401549293909290915060ff8082169161010090041685565b6000818152600260205260408120546001600160a01b0316806104b65760405162461bcd60e51b815260040161057790611e26565b6008543410156108ab57600080fd5b6108b48161114e565b50565b60006001600160a01b0382166108df5760405162461bcd60e51b815260040161057790611ddc565b506001600160a01b031660009081526003602052604090205490565b610903610f2a565b6001600160a01b0316610914610c5e565b6001600160a01b03161461093a5760405162461bcd60e51b815260040161057790611ef0565b61094460006112a3565b565b60606009805480602002602001604051908101604052809291908181526020016000905b82821015610a6357838290600052602060002090600402016040518060a001604052908160008201805461099d906120d5565b80601f01602080910402602001604051908101604052809291908181526020018280546109c9906120d5565b8015610a165780601f106109eb57610100808354040283529160200191610a16565b820191906000526020600020905b8154815290600101906020018083116109f957829003601f168201915b50505091835250506001828101546020808401919091526002840154604084015260039093015460ff8082166060850152610100909104166080909201919091529183529201910161096a565b50505050905090565b60606000610a79836108b7565b67ffffffffffffffff811115610a9f57634e487b7160e01b600052604160045260246000fd5b604051908082528060200260200182016040528015610ad857816020015b610ac56116dc565b815260200190600190039081610abd5790505b5090506000805b600954811015610c5557846001600160a01b0316610afc82610867565b6001600160a01b03161415610c435760098181548110610b2c57634e487b7160e01b600052603260045260246000fd5b90600052602060002090600402016040518060a0016040529081600082018054610b55906120d5565b80601f0160208091040260200160405190810160405280929190818152602001828054610b81906120d5565b8015610bce5780601f10610ba357610100808354040283529160200191610bce565b820191906000526020600020905b815481529060010190602001808311610bb157829003601f168201915b5050509183525050600182015460208201526002820154604082015260039091015460ff8082166060840152610100909104166080909101528351849084908110610c2957634e487b7160e01b600052603260045260246000fd5b60200260200101819052508180610c3f90612110565b9250505b80610c4d81612110565b915050610adf565b50909392505050565b6006546001600160a01b031690565b610c75610f2a565b6001600160a01b0316610c86610c5e565b6001600160a01b031614610cac5760405162461bcd60e51b815260040161057790611ef0565b600855565b6060600180546104cd906120d5565b4790565b610ccc610f2a565b6001600160a01b0316826001600160a01b03161415610cfd5760405162461bcd60e51b815260040161057790611cfc565b8060056000610d0a610f2a565b6001600160a01b03908116825260208083019390935260409182016000908120918716808252919093529120805460ff191692151592909217909155610d4e610f2a565b6001600160a01b03167f17307eab39ab6107e8899845ad3d59bd9653f200f220920489ca2b5937696c3183604051610d869190611b91565b60405180910390a35050565b610da3610d9d610f2a565b83610f9c565b610dbf5760405162461bcd60e51b815260040161057790611ffe565b610dcb848484846112f5565b50505050565b3090565b6060610de082610f0d565b610dfc5760405162461bcd60e51b815260040161057790611f6e565b6000610e06611328565b90506000815111610e265760405180602001604052806000815250610e51565b80610e308461133a565b604051602001610e41929190611a56565b6040516020818303038152906040525b9392505050565b6001600160a01b03918216600090815260056020908152604080832093909416825291909152205460ff1690565b610e8e610f2a565b6001600160a01b0316610e9f610c5e565b6001600160a01b031614610ec55760405162461bcd60e51b815260040161057790611ef0565b6001600160a01b038116610eeb5760405162461bcd60e51b815260040161057790611c3b565b6108b4816112a3565b6001600160e01b031981166301ffc9a760e01b14919050565b6000908152600260205260409020546001600160a01b0316151590565b3390565b600081815260046020526040902080546001600160a01b0319166001600160a01b0384169081179091558190610f6382610867565b6001600160a01b03167f8c5be1e5ebec7d5bd14f71427d1e84f3dd0314c0f7b2291e5b200ac8c7c3b92560405160405180910390a45050565b6000610fa782610f0d565b610fc35760405162461bcd60e51b815260040161057790611d33565b6000610fce83610867565b9050806001600160a01b0316846001600160a01b031614806110095750836001600160a01b0316610ffe84610550565b6001600160a01b0316145b8061101957506110198185610e58565b949350505050565b826001600160a01b031661103482610867565b6001600160a01b03161461105a5760405162461bcd60e51b815260040161057790611f25565b6001600160a01b0382166110805760405162461bcd60e51b815260040161057790611cb8565b61108b83838361062f565b611096600082610f2e565b6001600160a01b03831660009081526003602052604081208054600192906110bf908490612092565b90915550506001600160a01b03821660009081526003602052604081208054600192906110ed908490612066565b909155505060008181526002602052604080822080546001600160a01b0319166001600160a01b0386811691821790925591518493918716917fddf252ad1be2c89b69c2b068fc378daa952ba7f163c4a11628f55a4df523b3ef91a4505050565b600061115a6064611455565b9050600061116e662386f26fc10000611455565b6040805160a08101825285815260075460208083019190915291810183905260016060820181905260ff86166080830152600980549182018155600052815180519495509193849360049092027f6e1540171b6c0c960b71a7020d9f60077f6af931a8bbf590da0223dacf75c7af01926111ec928492910190611711565b50602082015160018201556040820151600282015560608201516003909101805460809093015160ff9081166101000261ff00199190931660ff19909416939093179290921617905560075461124390339061148f565b336001600160a01b03167f24d2d558f98bdd9d21339e119fc0b03e213c7d05affd838ac2ee136d90e3bbeb60075484604051611280929190612058565b60405180910390a26007805490600061129883612110565b919050555050505050565b600680546001600160a01b038381166001600160a01b0319831681179093556040519116919082907f8be0079c531659141344cd1fd0a4f28419497f9722a3daafe3b4186f6b6457e090600090a35050565b611300848484611021565b61130c848484846114a9565b610dcb5760405162461bcd60e51b815260040161057790611be9565b60408051602081019091526000815290565b60608161135f57506040805180820190915260018152600360fc1b60208201526104b9565b8160005b8115611389578061137381612110565b91506113829050600a8361207e565b9150611363565b60008167ffffffffffffffff8111156113b257634e487b7160e01b600052604160045260246000fd5b6040519080825280601f01601f1916602001820160405280156113dc576020820181803683370190505b5090505b8415611019576113f1600183612092565b91506113fe600a8661214b565b611409906030612066565b60f81b81838151811061142c57634e487b7160e01b600052603260045260246000fd5b60200101906001600160f81b031916908160001a90535061144e600a8661207e565b94506113e0565b600080423360405160200161146b929190611a85565b60408051601f1981840301815291905280516020909101209050610e51838261214b565b6107728282604051806020016040528060008152506115c4565b60006114bd846001600160a01b03166115f7565b156115b957836001600160a01b031663150b7a026114d9610f2a565b8786866040518563ffffffff1660e01b81526004016114fb9493929190611ab9565b602060405180830381600087803b15801561151557600080fd5b505af1925050508015611545575060408051601f3d908101601f19168201909252611542918101906119b0565b60015b61159f573d808015611573576040519150601f19603f3d011682016040523d82523d6000602084013e611578565b606091505b5080516115975760405162461bcd60e51b815260040161057790611be9565b805181602001fd5b6001600160e01b031916630a85bd0160e11b149050611019565b506001949350505050565b6115ce83836115fd565b6115db60008484846114a9565b61062f5760405162461bcd60e51b815260040161057790611be9565b3b151590565b6001600160a01b0382166116235760405162461bcd60e51b815260040161057790611e6f565b61162c81610f0d565b156116495760405162461bcd60e51b815260040161057790611c81565b6116556000838361062f565b6001600160a01b038216600090815260036020526040812080546001929061167e908490612066565b909155505060008181526002602052604080822080546001600160a01b0319166001600160a01b03861690811790915590518392907fddf252ad1be2c89b69c2b068fc378daa952ba7f163c4a11628f55a4df523b3ef908290a45050565b6040518060a00160405280606081526020016000815260200160008152602001600060ff168152602001600060ff1681525090565b82805461171d906120d5565b90600052602060002090601f01602090048101928261173f5760008555611785565b82601f1061175857805160ff1916838001178555611785565b82800160010185558215611785579182015b8281111561178557825182559160200191906001019061176a565b50611791929150611795565b5090565b5b808211156117915760008155600101611796565b600067ffffffffffffffff808411156117c5576117c561218b565b604051601f8501601f1916810160200182811182821017156117e9576117e961218b565b60405284815291508183850186101561180157600080fd5b8484602083013760006020868301015250509392505050565b80356001600160a01b03811681146104b957600080fd5b600060208284031215611842578081fd5b610e518261181a565b6000806040838503121561185d578081fd5b6118668361181a565b91506118746020840161181a565b90509250929050565b600080600060608486031215611891578081fd5b61189a8461181a565b92506118a86020850161181a565b9150604084013590509250925092565b600080600080608085870312156118cd578081fd5b6118d68561181a565b93506118e46020860161181a565b925060408501359150606085013567ffffffffffffffff811115611906578182fd5b8501601f81018713611916578182fd5b611925878235602084016117aa565b91505092959194509250565b60008060408385031215611943578182fd5b61194c8361181a565b915060208301358015158114611960578182fd5b809150509250929050565b6000806040838503121561197d578182fd5b6119868361181a565b946020939093013593505050565b6000602082840312156119a5578081fd5b8135610e51816121a1565b6000602082840312156119c1578081fd5b8151610e51816121a1565b6000602082840312156119dd578081fd5b813567ffffffffffffffff8111156119f3578182fd5b8201601f81018413611a03578182fd5b611019848235602084016117aa565b600060208284031215611a23578081fd5b5035919050565b60008151808452611a428160208601602086016120a9565b601f01601f19169290920160200192915050565b60008351611a688184602088016120a9565b835190830190611a7c8183602088016120a9565b01949350505050565b91825260601b6bffffffffffffffffffffffff1916602082015260340190565b6001600160a01b0391909116815260200190565b6001600160a01b0385811682528416602082015260408101839052608060608201819052600090611aec90830184611a2a565b9695505050505050565b60208082528251828201819052600091906040908185019080840286018301878501865b83811015611b8357603f19898403018552815160a08151818652611b4082870182611a2a565b838b0151878c0152898401518a88015260608085015160ff9081169189019190915260809485015116939096019290925250509386019390860190600101611b1a565b509098975050505050505050565b901515815260200190565b600060208252610e516020830184611a2a565b600060a08252611bc260a0830188611a2a565b602083019690965250604081019390935260ff918216606084015216608090910152919050565b60208082526032908201527f4552433732313a207472616e7366657220746f206e6f6e20455243373231526560408201527131b2b4bb32b91034b6b83632b6b2b73a32b960711b606082015260800190565b60208082526026908201527f4f776e61626c653a206e6577206f776e657220697320746865207a65726f206160408201526564647265737360d01b606082015260800190565b6020808252601c908201527f4552433732313a20746f6b656e20616c7265616479206d696e74656400000000604082015260600190565b60208082526024908201527f4552433732313a207472616e7366657220746f20746865207a65726f206164646040820152637265737360e01b606082015260800190565b60208082526019908201527f4552433732313a20617070726f766520746f2063616c6c657200000000000000604082015260600190565b6020808252602c908201527f4552433732313a206f70657261746f7220717565727920666f72206e6f6e657860408201526b34b9ba32b73a103a37b5b2b760a11b606082015260800190565b60208082526038908201527f4552433732313a20617070726f76652063616c6c6572206973206e6f74206f7760408201527f6e6572206e6f7220617070726f76656420666f7220616c6c0000000000000000606082015260800190565b6020808252602a908201527f4552433732313a2062616c616e636520717565727920666f7220746865207a65604082015269726f206164647265737360b01b606082015260800190565b60208082526029908201527f4552433732313a206f776e657220717565727920666f72206e6f6e657869737460408201526832b73a103a37b5b2b760b91b606082015260800190565b6020808252818101527f4552433732313a206d696e7420746f20746865207a65726f2061646472657373604082015260600190565b6020808252602c908201527f4552433732313a20617070726f76656420717565727920666f72206e6f6e657860408201526b34b9ba32b73a103a37b5b2b760a11b606082015260800190565b6020808252818101527f4f776e61626c653a2063616c6c6572206973206e6f7420746865206f776e6572604082015260600190565b60208082526029908201527f4552433732313a207472616e73666572206f6620746f6b656e2074686174206960408201526839903737ba1037bbb760b91b606082015260800190565b6020808252602f908201527f4552433732314d657461646174613a2055524920717565727920666f72206e6f60408201526e3732bc34b9ba32b73a103a37b5b2b760891b606082015260800190565b60208082526021908201527f4552433732313a20617070726f76616c20746f2063757272656e74206f776e656040820152603960f91b606082015260800190565b60208082526031908201527f4552433732313a207472616e736665722063616c6c6572206973206e6f74206f6040820152701ddb995c881b9bdc88185c1c1c9bdd9959607a1b606082015260800190565b90815260200190565b918252602082015260400190565b600082198211156120795761207961215f565b500190565b60008261208d5761208d612175565b500490565b6000828210156120a4576120a461215f565b500390565b60005b838110156120c45781810151838201526020016120ac565b83811115610dcb5750506000910152565b6002810460018216806120e957607f821691505b6020821081141561210a57634e487b7160e01b600052602260045260246000fd5b50919050565b60006000198214156121245761212461215f565b5060010190565b600060ff821660ff8114156121425761214261215f565b60010192915050565b60008261215a5761215a612175565b500690565b634e487b7160e01b600052601160045260246000fd5b634e487b7160e01b600052601260045260246000fd5b634e487b7160e01b600052604160045260246000fd5b6001600160e01b0319811681146108b457600080fdfea2646970667358221220902a4f56ac56067010864f8e92e31818328ea3051e3ce0f40eeb94836f0b02db64736f6c63430008000033",
  "immutableReferences": {},
  "source": "// SPDX-License-Identifier: MIT\n\npragma solidity ^0.8.0;\n\n// Importacin del ERC721\nimport \"@openzeppelin/contracts/token/ERC721/ERC721.sol\";\nimport \"@openzeppelin/contracts/access/Ownable.sol\";\n\n// Creacin del Smart Contract con herencia directa del ERC721\ncontract LipToken is ERC721, Ownable {\n\n    // Constructor que recibe: nombre y simbolo del token\n    constructor(string memory _name, string memory _symbol)\n        ERC721(_name, _symbol){}\n\n    // Contador \n    uint256 COUNTER;\n\n    // Pago para la creacin de un token NFT\n    uint256 fee = 0.01 ether;\n    // Estructura de datos con las propiedades del labio\n    struct Lip {\n        string name;\n        uint256 id;\n        uint256 dna;\n        uint8 level;\n        uint8 rarity;\n    }\n    // Lista de objetos \"labio\" \n    Lip[] public lips;\n    // Declaracin de un nuevo labio como token NFT\n    event NewLip(address indexed owner, uint256 id, uint256 dna);\n    \n    \n    // ========================================================\n    // Asignacin de un nmero aleatorio\n    function _createRandomNum(uint256 _mod) internal view returns (uint256) {\n        uint256 randomNum = uint256(\n        keccak256(abi.encodePacked(block.timestamp, msg.sender)));\n        return randomNum % _mod;\n    }\n    // Actualizacin de las tasas de precios de los NFT\n    function updateFee(uint256 _fee) external onlyOwner {\n        fee = _fee;\n    }\n\n    // Extraccin de los Ethers hacia el Owner del Smart Contract\n    function withdraw() external payable onlyOwner {\n        address payable _owner = payable(owner());\n        // El owner recibe el balance que esta en el Smart Contract\n        _owner.transfer(address(this).balance);\n    }\n\n    // Creacin del token NFT\n    function _createLip(string memory _name) internal {\n        uint8 randRarity = uint8(_createRandomNum(100));\n        uint256 randDna = _createRandomNum(10**16);\n        Lip memory newLip = Lip(_name, COUNTER, randDna, 1, randRarity);\n        lips.push(newLip);\n        _safeMint(msg.sender, COUNTER);\n        emit NewLip(msg.sender, COUNTER, randDna);\n        COUNTER++;\n    }\n\n    // ========================================================\n    // MAIN\n    // Creacin de un labio aleatorio\n    function createRandomLip(string memory _name) public payable {\n        require(msg.value >= fee);\n        _createLip(_name);\n    }\n\n    // ========================================================\n    // Getters\n    function getLips() public view returns (Lip[] memory) {\n        return lips;\n    }\n\n\n    // Direccin del Smart contract \n    function addressSmartContract() public view returns (address){\n        return address(this);\n    }\n\n    // Visualizar balance del Smart contract\n    function moneySmartContract() public view returns (uint256){\n        return address(this).balance;\n    }\n\n    // Obtencin de los tokens de un usuario\n    function getOwnerLips(address _owner) public view returns (Lip[] memory) {\n        Lip[] memory result = new Lip[](balanceOf(_owner));\n        uint256 counter = 0;\n        for (uint256 i = 0; i < lips.length; i++) {\n            if (ownerOf(i) == _owner) {\n                result[counter] = lips[i];\n                counter++;\n            }\n        }\n        return result;\n    }\n\n    // Subir un nivel nuestro Token NFT\n    function levelUp(uint256 _lipId) public {\n        require(ownerOf(_lipId) == msg.sender);\n        Lip storage lip = lips[_lipId];\n        lip.level++;\n    }\n}\n",
  "sourcePath": "/Users/joan_amengual/GitHub/NFT/BLOQUE 3 - VIDEOJUEGO NFT/hashlips/contracts/LipToken.sol",
  "compiler": {
    "name": "solc",
    "version": "0.8.0+commit.c7dfd78e.Emscripten.clang"
  },
  "schemaVersion": "3.4.2",
  "updatedAt": "2021-12-06T09:24:08.480Z",
  "networkType": "ethereum",
  "devdoc": {
    "kind": "dev",
    "methods": {
      "approve(address,uint256)": {
        "details": "See {IERC721-approve}."
      },
      "balanceOf(address)": {
        "details": "See {IERC721-balanceOf}."
      },
      "getApproved(uint256)": {
        "details": "See {IERC721-getApproved}."
      },
      "isApprovedForAll(address,address)": {
        "details": "See {IERC721-isApprovedForAll}."
      },
      "name()": {
        "details": "See {IERC721Metadata-name}."
      },
      "owner()": {
        "details": "Returns the address of the current owner."
      },
      "ownerOf(uint256)": {
        "details": "See {IERC721-ownerOf}."
      },
      "renounceOwnership()": {
        "details": "Leaves the contract without owner. It will not be possible to call `onlyOwner` functions anymore. Can only be called by the current owner. NOTE: Renouncing ownership will leave the contract without an owner, thereby removing any functionality that is only available to the owner."
      },
      "safeTransferFrom(address,address,uint256)": {
        "details": "See {IERC721-safeTransferFrom}."
      },
      "safeTransferFrom(address,address,uint256,bytes)": {
        "details": "See {IERC721-safeTransferFrom}."
      },
      "setApprovalForAll(address,bool)": {
        "details": "See {IERC721-setApprovalForAll}."
      },
      "supportsInterface(bytes4)": {
        "details": "See {IERC165-supportsInterface}."
      },
      "symbol()": {
        "details": "See {IERC721Metadata-symbol}."
      },
      "tokenURI(uint256)": {
        "details": "See {IERC721Metadata-tokenURI}."
      },
      "transferFrom(address,address,uint256)": {
        "details": "See {IERC721-transferFrom}."
      },
      "transferOwnership(address)": {
        "details": "Transfers ownership of the contract to a new account (`newOwner`). Can only be called by the current owner."
      }
    },
    "version": 1
  },
  "userdoc": {
    "kind": "user",
    "methods": {},
    "version": 1
  }
}